:020000040800F2
:10000000C0070020E50100086D34000865340008D1
:1000100069340008B5140008293800080000000001
:10002000000000000000000000000000753400081F
:10003000B91400080000000071340008F13600080F
:10004000FF010008FF010008FF010008FF01000890
:10005000FF010008FF010008FF010008FF01000880
:10006000FF010008FF010008FF010008FF01000870
:10007000FF010008FF010008FF010008FF01000860
:10008000FF010008FF010008FF010008FF01000850
:10009000FF010008FF010008FF010008FF01000840
:1000A000FF010008FF010008FF010008FF01000830
:1000B000F936000805370008FF010008FF010008B5
:1000C000FF010008FF010008FF010008FF01000810
:1000D000FF0100081D380008FF010008FF010008AB
:1000E000FF010008FF010008FF01000800F002F80E
:1000F00000F069F814A696E8000CB244B344DA455F
:1001000001D100F060F8BAE80F000FA696E83000C1
:10011000A5EB040504EB0607AAEB0704A7F101070A
:100120004FEA15154FEA3414A4F10104AC4201D38F
:1001300000F049F813F0010F18BFFB1A43F0010358
:1001400000F001F8DBE71847E45C0000045D000004
:10015000103A24BF78C878C1FAD8520724BF30C8F3
:1001600030C144BF04680C60704700007047000055
:100170000023002400250026103A28BF78C1FBD8B0
:10018000520728BF30C148BF0B607047642900F098
:10019000B980752900F0B680732900F0ED82002047
:1001A00070471FB500F066FB04000020002104F03A
:1001B00095FF401C60600020002104F0A5FFE06076
:1001C0001FBD10B510BD00F0DDFB1146FFF7E9FFC4
:1001D00003F02CFB00F024FC03B4FFF7F2FF03BC98
:1001E00000F02AFF0948804709480047FEE7FEE77C
:1001F000FEE7FEE7FEE7FEE7FEE7FEE7FEE7FEE7D7
:1002000004480549054A064B70470000F5360008CA
:10021000ED000008C0010020C0070020C00300203E
:10022000C00300200FB41CB50C0007AA009007D033
:100230004142A14202D32044401E01E04FF0FF3072
:10024000074B7B4469460190069800F068FA00204D
:10025000002C01D0009908701CBC5DF814FB000054
:10026000FF04000070B5044685690068C10601D529
:10027000302600E02026C00707D070BDD4E9012158
:1002800030469047206A401C20626D1EF6D570BD36
:1002900070B5044685690078C00707D170BDD4E900
:1002A000012120209047206A401C20626D1EF6D557
:1002B00070BD70B50C460546012A05D02878800629
:1002C00000D5EA69002302E0012305E05B1C9342AC
:1002D00002D2E05C0028F9D1A869E618C01AA8612A
:1002E000286A184428622846FFF7BCFF04E0D5E9D5
:1002F000012114F8010B9047B442F8D32846FFF7C8
:10030000C7FF70BD2DE9F04106460024106875292D
:10031000314616A510D0AFF30080002802DA404223
:1003200013A507E031688A0701D512A502E0490745
:1003300004D511A5012401E0AFF3008000210A22B9
:1003400006F1240709E0B0FBF2FCB0FBF2F302FB7C
:100350001C00303078541846491C0028F3D123463D
:100360002A463046BDE8F04100F07AB900000000AE
:100370002D0000002B000000200000002DE9F05FA0
:10038000894604464FF0000ADFF874B1FB44C0F818
:1003900020A02046E1688847002874D0252806D090
:1003A000D4E901219047206A401C2062F1E7002631
:1003B0005F462046E16888472028054607DB312D47
:1003C00005D2781910F8200C08B10643F1E7B00700
:1003D00001D526F00406C4F81CA00027C4F818A014
:1003E0002A2D09D0284604F002FE38B304EB870812
:1003F000303DC8F8185019E059F8041B204604EBAA
:1004000087029161E1688847012F054618D1E069AC
:10041000002820DA26F020061DE0D8F8180000EBAE
:10042000800005EB40003038C8F818002046E1682D
:100430008847054604F0DBFD0028EED1012F0AD0E5
:100440002E2D08D12046E16888477F1C0546022FE3
:1004500046F02006C4DBA069002803DA404246F0DB
:100460000106A061F00701D026F010066C2D0BD01C
:10047000682D09D04C2D39D06A2D35D0742D35D04A
:100480007A2D33D016E038E0E1682F4620468847C1
:10049000B842054609D16C2F26D04FF48060E16840
:1004A000064320468847054604E06C2F1AD04FF4D7
:1004B000807006430DB3A5F14100192802D82035FC
:1004C00046F400664A462946204626604E46FFF717
:1004D0005DFE80B101280BD0F61D26F0070000F16B
:1004E000080956E74020E4E78020D8E70020D6E757
:1004F00006F104094DE7284652E7206ABDE8F09F5F
:10050000405800002DE9F04791460F4680460446CA
:10051000002614F8015B2DB100F096F80068405DEC
:10052000C007F6D12B2D02D02D2D18D0641E4A46BF
:100530003946204600F024F927B13968A14201D19B
:10054000C7F800804FF0020471050BD54042002827
:1005500003DD00F081F80460A007BDE8F08746F4F1
:100560008066E4E70028F8DA00F076F804606FF0BF
:100570000040F2E7014A00F057B9000000000020F7
:1005800010B5431C02E010F8011B71B18107FAD1CC
:100590004FF0013202C88C1A8C4314EAC211F9D010
:1005A000C01A0A0603D0C01E10BDC01A10BD0A042E
:1005B00001D0801E10BD0902FCD0401E10BD0000FD
:1005C0004FF0013C50F8042B51F8043B9A4221D1E2
:1005D000A2EB0C03934313EACC1317D150F8042B6E
:1005E00051F8043B9A4215D1A2EB0C03934313EA52
:1005F000CC130BD150F8042B51F8043B9A4209D18B
:10060000A2EB0C03934313EACC13DBD04FF00000B2
:10061000704700BFD01A01BAB1FA81F101F0180198
:1006200022FA01F0CB40DBB2C0B2C01AC1F1200106
:100630002CFA01F3D11A914311EAC311E6D17047A4
:10064000704770477047000010B500F013F9001DA7
:1006500010BD00BF894A000000487047100000200C
:100660002DE9F0470D4699469246044600F12408CC
:100670000168880604D5E06921F01001216000E0DE
:100680000120A84201DD471B00E00027A1697A197B
:1006900002EB0900081AA0612078C00602D42046A7
:1006A000FFF7E0FD002608E0D4E901211AF8060072
:1006B0009047206A401C761C20624E45F4DB20786F
:1006C000C0060AD52046FFF7CDFD06E0D4E901219A
:1006D00030209047206A401C2062381EA7F1010795
:1006E000F4DC07E0D4E9012118F805009047206AFE
:1006F000401C2062281EA5F10105F3DC2046FFF70F
:10070000C7FD2078000602D50220BDE8F087012051
:10071000FBE7000001694A1C02610878704700B5D8
:100720008FB0CDE901310021059105497944CDE92A
:10073000031011466846FFF721FE0FB000BD000010
:10074000E5FFFFFFD1E900239A4202D2531C0B6060
:100750001070704710B5436913B1AFF3008001E02A
:10076000FFF7A7FD012010BD127800F124010A70E7
:1007700000224A700122EDE711684FF0FF32E9E7ED
:100780002DE9F05F824615468B4600270AF10104E9
:10079000B9460078302801D09DB113E014F8010B60
:1007A0000127782803D0582801D045B10AE00DB1BF
:1007B000102D07D1002714F8010B102502E00825A1
:1007C00000E00A250026B0460EE005FB080005FB08
:1007D00006F101271FFA80F801EB1046B6F5803FBD
:1007E00000D3B94614F8010B294600F047F8002859
:1007F000EBDABBF1000F05D00FB1641E00E05446E8
:10080000CBF80040B9F1000F06D0FFF725FF022119
:100810000160C81EBDE8F09F48EA0640FAE70023E1
:10082000036000F05BB800002DE9F04115460E466C
:10083000040002D12C6804B90BA4204600F094F8FF
:100840000444207870B127463146384600F07CF8E1
:100850000444207810B1002004F8010B38462C60C5
:10086000BDE8F0810027F9E700000000004870476C
:100870001000002000487047300000203A2800D2C5
:10088000303820F02002412A01D3A2F137008842FB
:1008900001D34FF0FF3070470FB40B0010B54FF08D
:1008A00000048AB00FA900910E99CC60234C7C44BF
:1008B000234A7A44CDE9064200D004236FF0004277
:1008C000CDE901321F4A7A446B4608920246002065
:1008D00005F060F90AB010BC5DF814FBF0B50746EE
:1008E0004FF0FF301E4615460C463B4685B06A4623
:1008F0000091CDE9010131460020049004A8FFF7E2
:10090000CBFF04990346601825B109B1024600E007
:1009100022462A6000290ED0002B02DD0099814278
:1009200009D03B466A463146001B0094CDE90104DC
:1009300004A8FFF7B1FF05B0F0BD00002F010000D3
:10094000490100000501000030B503461D781DB1C6
:100950000A4603E0AC4201D1181A30BD12F8014B2F
:10096000002CF7D15B1CF1E730B503461D783DB193
:100970000A4612F8014B1CB1AC42FAD15B1CF5E7F8
:10098000181A30BD7546FFF771FFAE46050069467F
:10099000534620F00700854618B020B5FFF730FC1D
:1009A000BDE820404FF000064FF000074FF0000870
:1009B0004FF0000BAC46ACE8C009ACE8C009ACE8AD
:1009C000C009ACE8C00921F007018D46704710B599
:1009D0000446FFF739FE0068005D00F0010010BD1D
:1009E000426842B1016811F8013B23B1521EC0E9CF
:1009F0000012184670470121C160881E7047426886
:100A00005AB1C368016843B983688B4205D0491E57
:100A1000521CC0E90012002070474FF0FF307047B1
:100A200010B50446AFF300802046BDE81040FFF744
:100A3000D3BB00002DE9FF4F06468BB00878FF2896
:100A400006D0491C2D2805D000244FF0000908E0ED
:100A500000200CE00124F8E709EB8903491C00EBB6
:100A600043090878FF28F7D114B1C9F10000814685
:100A7000107800252C46AA4629462D2801D02B287F
:100A800004D1521C2D2813D0002082468B461078AA
:100A9000FF280FD04FF0000C0A21521CA5FB017853
:100AA00004FB018105FB0C11C5194BEB0104EEE7BA
:100AB0000120EAE7002108464FF00000BAF1000FDC
:100AC00002D000EB80004008C0F38157012F01DD08
:100AD0004FF0FF370E9955EA040009EB01080BD0DF
:100AE0004FF0020918F5FA7F16DA4FEACA70002FA4
:100AF000706008DD012007E04FEACA70C6E900B067
:100B00000FB0BDE8F08F00203060FFF7A5FDC0F802
:100B100000901821084616E0B8F5FA7F18DD002F7E
:100B200002DAF748784401E0F6487844D0E900104A
:100B3000C6E9001040EACA707060FFF78DFDC0F88A
:100B40000090142108460FB0BDE8F04F04F0BFBF7D
:100B5000002108464FF00000B8F10001099002DAC8
:100B6000C7F1000200E03A4601DAC8F1000106A828
:100B700000F0F0F906AB93E8070003AB83E8070049
:100B800044F23E005BEA04010090584604D144F26E
:100B90001E012C465D460091210C0904014306D13B
:100BA0000099240444EA15442D041039009104F0FE
:100BB0007F41014306D10099240244EA15642D02C5
:100BC0000839009104F07041014306D100992401D5
:100BD00044EA15742D01091F009104F040410143BE
:100BE00006D10099A40044EA9574AD00891E0091D5
:100BF00004F00041084304D100986D196441401E7F
:100C000000904FF001033A466846B8F1000FCDE975
:100C1000014503A902DD04F032F801E004F005F813
:100C2000BAF1000F04460D4601D084F000440021C3
:100C300008464FF00000099940F2FF77484010F055
:100C40000C0F07D124F00040284303D0C4F30A500E
:100C5000B84212D1FFF700FDC0F80090C4F30A506B
:100C6000B8420AD1A8487844D0E90010C6E900107B
:100C700004F000410843706042E7C6E900543FE7D2
:100C80002DE9FF4F1F464FF0000A4FF0FF38454651
:100C900091B0D7E90146CDF83CA0FFF7EBFDC06865
:100CA0000168405C1090B96912986D1C8847396AD8
:100CB000814688470028F6D1B9F1FF3F0AD0002EBF
:100CC00024F4D06411DDB9F12B0F08D0B9F12D0F48
:100CD0000BD102E0404615B013E744F48064B969D3
:100CE00012986D1C8847761E8146600504A901D5BF
:100CF0002D2000E02B20002E01F1010B0DF130081A
:100D00008DF810003FDDB9F1690F08D0B9F1490F36
:100D100005D0B9F16E0F02D0B9F14E0F1CD13B4690
:100D200001A8009580E85002DDE912126FF0020080
:100D300004F034FFC11CCED10EE0B96912986D1CCD
:100D4000884781461398761E44F4007405600F9816
:100D5000401C002E0F9016DDB9F1300FEDD0B9F127
:100D6000780F02D0B9F1580F0DD10F9801280AD190
:100D70003B46CDE90054DDE91212001F029604F053
:100D80000BFFC11CA7D1109989453ED144F08004C6
:100D900006E01399681CAAF1010A44F40074086083
:100DA000B9696D1C1298761E884730288146F0D0AC
:100DB0002BE01099894505D1200603D4761E44F016
:100DC000800418E0484604F012F908B3761E0DF1CD
:100DD00023029345A9F1300044F4007406D20BF8C5
:100DE000010B200607D5AAF1010003E0200602D47A
:100DF0000AF101008246A00502D51399681C08601B
:100E0000B96912986D1C88478146002ED1DC53E0E9
:100E1000002E51DDB9F1650F02D0B9F1450F4BD16C
:100E2000A00549D5B9696D1C1298761E24F440744A
:100E30008847002E81460CDD2B2804D0B9F12D0FF8
:100E400007D144F48074B96912986D1C8847761EE6
:100E50008146E00501D52D2100E02B2108F8011B7A
:100E6000CDF8008021E0761E0DF13901884544F46B
:100E700000740CD2A9F1300010F0FF0088F80000D7
:100E800002D10099884509D908F1010806E0E0057A
:100E900001D51E4801E042F20F708246B9691298EE
:100EA0006D1C8847814613980560002E04DD484676
:100EB00004F09DF80028D6D1F96912988847FF20E0
:100EC00053468BF8000088F8000000200A900B9031
:100ED00004AA0CA90AA8FFF7ADFDA00502D46FF083
:100EE0000100F8E614F0240F12D0E0071CD1386896
:100EF000DDE90A12031D3B600068C0E9001213E03F
:100F00002C5300001E530000E2510000F1D8FFFFF7
:100F10000AA9684603F0FAFFE00705D13868009A8D
:100F2000011D3960006802602846D4E6B2F1200352
:100F30000AD5C2F1200301FA02F120FA03F341EAD3
:100F4000030100FA02F0704700FA03F14FF00000CD
:100F5000704700002DE9F047814616468AB03548B3
:100F600078440DC88DE80D0032487844801C03ACED
:100F70000DC884E80D0041F69B300844372190FBF2
:100F8000F1F290FBF1F5A5F1800501FB12041B3C89
:100F900002D56442012000E00020DFF898A08046DE
:100FA0000027FA44AAF1BE0A0EE0E0070AD0324652
:100FB000684607EB470101230AEB810103F04AFE73
:100FC0008DE8070064107F1C002CEED1194F7F4480
:100FD000AE3F19E0E80715D007EB04100DF1180A31
:100FE00090E80E008AE80E00C068F04201D198191E
:100FF00008903246012306A903A803F02BFE03AB99
:1010000083E807006D10641C002DE3D14FF001034D
:1010100032466946B8F1000F03A802D003F0F0FD94
:1010200001E003F017FEC9E90001C9F808200AB081
:10103000BDE8F087FC4C000001491820ABBEFEE77C
:101040002600020010B5FFF707FB006810BD10B5C1
:101050000446FFF701FB046010BD00002DE9FF4FBF
:101060001F464FF03C0987B04FF00042DDE91410F5
:1010700001F10108DDF858A002EA40500390002079
:1010800005908346054604460490B969461E0898B3
:101090008847AAF1010A0290BAF1000F3BDD0298DD
:1010A0002E2815D01021FFF7E9FB00282EDB4FF08A
:1010B000010B0599014317D0B9F1000F0BDB4A462C
:1010C000C117FFF733FF05430C43A9F1040905E0FD
:1010D000012004900BE008B145F0010501200590C6
:1010E000049820B9361D02E0049800B1361FB96992
:1010F000089808F101088847BBF1000FAAF1010A1E
:101100000290C9D00999C1F80080C5E702987028FB
:1011100008D0502806D0F96908988847BBF1000F1D
:1011200014D04FE0002002900120BBF1000F04908A
:1011300009D0B969089808F101088847AAF101099E
:10114000B9F1000F07DCF969089888476FF00100D2
:101150000BB0BDE8F08F2B2804D02D280CD14FF018
:10116000FF300490B969089808F101088847A9F18F
:101170000109B9F1000FE6DD411CE4D00A21FFF7B7
:101180007DFB0028DFDB029908F1010801EB8101FA
:1011900000EB41000290B969089888470A21FFF7DF
:1011A0006DFB099AA9F10109B9F1000FC2F800809D
:1011B00001DD0028E7DAF969089888470499029860
:1011C00000FB016655EA040004D004F04041090028
:1011D00002D006E0039898E0A40044EA9574AD00BC
:1011E000B61E04F00041080002D16D196441761E5C
:1011F000159810F0240F03D04FF00B095C4803E062
:101200004FF028096FF07D008246564507DAAAEBB9
:1012100006018944B9F1410F01DD4FF04109012078
:101220000021A9F10102FFF781FE024628400B468A
:101230002140084301D0012100E00021501E02910D
:1012400043F1FF3128402140084301D0012000E054
:1012500000200299834651EA0B014FD00021084635
:101260004FF00000039900F4400039B100EB80001A
:101270004FF4400100EBD07001EA600080150128B6
:1012800002DD4FF0FF3000E013D0401C36D0029852
:1012900060B3BBF1000F0CD14A4601200021FFF7DB
:1012A00045FE28402140084301D0012000E00020F5
:1012B000E0B101204A460021FFF738FE03464019FD
:1012C0000A4661412D1A8C4111D3B9F1400F09DD55
:1012D000159810F0240F02D0AAF1340603E0AAF109
:1012E000170600E0761C00254FF0004406E05B1E68
:1012F00042F1FF3220EA030521EA0204CAF10100AB
:10130000B04206DA1B490398084301900020009080
:101310000EE0039AC4F3D321E80A0A43164940EACF
:1013200044500A433146CDE90002684603F054FEBA
:10133000159810F0240F0BD01598C00715D13868F8
:10134000DDE90012031D3B600068C0E900120CE0FB
:1013500002A8694603F0DAFD1598C00705D1386880
:10136000029A011D3960006802604046F0E6000004
:1013700002FCFFFF0000F07F0000F03F2DE9FF4F6F
:1013800092461D4685B04FF00041DDE9124BDDE984
:1013900014727F1E01EA4B50414940F0FF4940EA78
:1013A0000108002122F020004928049102D04E2893
:1013B00028D04CE03BA0012607C88DE80700A969AA
:1013C0000698641C88477F1E014606D41DF8060057
:1013D00018B121F0200181420BD0E96906988847B5
:1013E000032E34D0082E32D06FF0010009B0BDE8D2
:1013F000F08F761C032E01D0082EE0D1601CCAF8B5
:101400000000DCE7A9690698641C88477F1E2AD47F
:1014100020F02000412826D1A9690698641C88473D
:101420007F1E20D420F020004E281CD1A9690698E8
:10143000641C88477F1E48F4002849F48009CAF8D4
:10144000004001D4282806D0E969069888475FEA59
:10145000CB7012D022E0A9690698641C88477F1ED1
:1014600001D4002803DAE96906988847BCE72928EF
:10147000F1D1641CCAF80040E9E71BF0240F07D043
:1014800028680499031D2B600068C0E9001805E076
:101490002868021D2A600068C0F800902046A5E771
:1014A0000000F07F494E46494E4954590000000063
:1014B00070470000FEE7000070470000014690F80A
:1014C0002100022816D10868D1E90FC3026822F072
:1014D0000E020260026822F001020260012000FA9E
:1014E00003F2CCF8042081F821000020002281F8CA
:1014F00020207047042088630120002281F82020EA
:101500007047000090F82110022923D1026840F2B0
:10151000040C1168C4F2020C21F00E011160136872
:101520002F21C4F202018A4223F00103136015DD6A
:101530003023C4F202039A421CD04423C4F20203B3
:101540009A421BD05823C4F202039A421CD14FF492
:10155000803321E004218163012070470823C4F215
:1015600002039A420ED01C23C4F202039A420BD10A
:10157000102311E04FF480730EE000BF4FF480534E
:101580000AE000BF012307E00CF168014FF080730F
:101590008A4208BF4FF480130121CCF8003080F854
:1015A0002110416B0022002980F8202004BF002078
:1015B000704780B58847002080BD0000B0B5044664
:1015C00000F01EF9054640F20400C2F20000007867
:1015D000611C18BF044400BF00F012F9401BA04278
:1015E000FAD3B0BD2DE9F04F82B00E68002E00F0A6
:1015F000FD8041F20042C4F20102042340F2004E99
:10160000904208BF03234FF6FF7CC4F2010E009303
:1016100000240123C1F2100C4FF0000A4FF0000922
:101620004BE000BF41F20002C4F20102009F904271
:1016300008BF022704F00C030F229A402BEA020293
:1016400007FA03F34FEA9A051A4346F825204E6835
:1016500040F20C45F202DEF8082054BF22EA0802EC
:1016600042EA0802C4F20105CEF808202A68B30253
:1016700054BF22EA080242EA08022A60B303DEF8F5
:10168000042054BF22EA080242EA0802F303CEF81B
:101690000420DEF800204FF0010354BF22EA0802C4
:1016A00042EA0802CEF800200E680AF1010A36FA72
:1016B0000AF204F1040400F0998003FA0AFB16EA26
:1016C0000B08F1D04E68664512DC122E56D8DFE8C2
:1016D00006F0350B4D4955555555555555555555EC
:1016E00055555545510000BFD1F80C9046E000BF5C
:1016F0004FF6FF72C1F2210296420FDC0022C1F2C6
:10170000110296421AD00022C1F21202964215D05E
:101710000022C1F22102964210D02FE00022C1F235
:10172000220296420AD00022C1F23102964205D02E
:101730000022C1F23202964220D100BF8A684AB12B
:10174000012A14BFC0F814B0C0F810B04FF0080957
:1017500014E000BF4FF0040910E000BFCA6802F1B6
:1017600004090BE04FF0000908E000BFCA6802F16D
:10177000080903E0CA6802F10C0900BF02462646C8
:10178000B8F5807F24BF0432203E17680F25B5408E
:1017900027EA050509FA06F635431560CA79D20627
:1017A0007FF582AF41F21803C4F202031A68AEF566
:1017B0007E7642F001021A601A6802F0010201927C
:1017C000019A2AF0030256F802B040F60002C4F271
:1017D0000102904208D040F60042C4F20102904259
:1017E0007FF420AF012725E7002723E702B0BDE8FB
:1017F000F08F0000002A08BF090401617047000053
:1018000040F2B810C2F200000068704740F20400D5
:1018100040F2B811C2F20000C2F2000100780A687A
:10182000104408607047000080B542F20000C4F226
:101830000200016841F010010160032000F08CF803
:101840000F2000F005F800F027F8002080BD000010
:1018500070B540F20406C2F2000640F20C01327884
:10186000C2F200014FF47A730968B3FBF2F2044646
:10187000B1FBF2F1084600F085FB0F2C4FF001059B
:1018800008D838B94FF0FF3021460022002500F07B
:1018900037F87460284670BD82B041F21800C4F277
:1018A00002000168022241F001010160016801F0BB
:1018B000010101910199416841F080514160406806
:1018C00000F08050009000980420C4F201000168EC
:1018D00062F31A61016002B070470000002848BF3F
:1018E000704700F01F01012202FA01F11C2202EAF6
:1018F000D0004EF20012CEF200028150704700007C
:1019000010B54EF60C5CCEF2000CDCF80030C3F3E0
:10191000022E8EF00704042C28BF0424BEF103031A
:101920004FF0FF3E0EFA04F438BF0023A143994064
:101930000EFA03F39A43114300F00F0200F16043E3
:101940000901043A03F564436244002848BF02F1E8
:101950000C03197010BD00004EF60C51CEF20001C0
:101960000A684FF6FF031A4060F30A2242F08060D3
:1019700040F0FD7008607047002804BF01207047E8
:101980002DE9F04381B042F20008C4F20208044697
:10199000D8F800000D4600F0070081420CD9D8F8B5
:1019A000000020F007002843C8F80000D8F8000025
:1019B00000F00700A8426CD1206841F204098107B9
:1019C000C4F2020917D5410705D5D9F8001041F432
:1019D000E061C9F80010010705D5D9F8001041F4FD
:1019E0006051C9F80010D9F80010A26821F0F00188
:1019F0001143C9F80010C00742D1D8F8000000F028
:101A0000070085420CD2D8F8000020F007002843D8
:101A1000C8F80000D8F8000000F00700A84238D14C
:101A20002068410707D5D9F80010E26821F4E06189
:101A30001143C9F80010000708D5D9F80000216942
:101A400020F4605040EAC100C9F80000D9F8002035
:101A500002F00C00082841F20020C0F27A004DD1BB
:101A600045F69243C2F38341C0F60003595CD203AA
:101A700038D440F60010C0F23D0048433EE000BFBD
:101A8000606859F8041C022808D0012826D189036F
:101A900006D4012001B0BDE8F08300BF8901F8D56C
:101AA000D9F8001021F003010843C9F80000FFF73E
:101AB000A7FE064641F28837D9F80000616800F0B9
:101AC0000C00B0EB810F98D0FFF79AFE801BB84254
:101AD000F2D9032001B0BDE8F08300BF8907D8D553
:101AE000DEE700BFD9F8002045F69043C2F340423C
:101AF000C0F600039A5C4843B0FBF2F0D9F800103E
:101B000045F67842C1F30311C0F60002515C40F281
:101B10000C0220FA01F140F20800C2F20000006855
:101B2000C2F200021160FFF793FE002001B0BDE891
:101B3000F083000040F20C0041F20401C2F2000008
:101B4000C4F202010068096845F68842C1F3022127
:101B5000C0F60002515CC8407047000040F20C0023
:101B600041F20401C2F20000C4F2020100680968F7
:101B700045F68842C1F3C221C0F60002515CC8405C
:101B800070470000002804BF012070472DE9F04194
:101B900082B00446007841F20006C007C4F2020693
:101BA0000CD0706800F00C00042840F08180306890
:101BB000800303D56068002800F046812078800704
:101BC0001BD5706810F00C0F09D0706800F00C0085
:101BD000082840F087807068C00300F18380306877
:101BE000800703D52069012840F02E8130686169A3
:101BF00020F0F80040EAC10030602078000713D4DC
:101C0000207840072CD4E569002D00F01881706819
:101C100000F00C00082840F0A780012D40F004815E
:101C2000012002B0BDE8F081A069002800F08480A6
:101C30000020C4F242200121C0F88014FFF7E0FD2B
:101C4000054600BF706A800700F1B280FFF7D8FD3B
:101C5000401B0228F6D9032002B0BDE8F08100BF86
:101C6000F0695FEAC00808D4F06940F08050F06184
:101C7000F06900F080500090009847F20007C4F22D
:101C800000073868C00549D4386840F4807038606F
:101C9000FFF7B6FD054600BF3868C0053ED4FFF724
:101CA000AFFD401B6428F7D9032002B0BDE8F081E6
:101CB000706800F00C00082803D17068C0033FF57D
:101CC00076AF61683068002900F00C81B1F5A02F73
:101CD00000F00081B1F5803F40F01A8140F480307F
:101CE0001CE100BF2069002840F20000C4F242203D
:101CF00000F0888001210160FFF782FD054600BFEA
:101D0000306880073FF572AFFFF77AFD401B02286D
:101D1000F6D9032002B0BDE8F08100BFE168306A67
:101D2000002900F09D80052900F09280012940F0F3
:101D3000AF8040F00100B1E00020C4F24220002159
:101D4000C0F88014FFF75CFD054600BF706A80078D
:101D50007FF556AFFFF754FD401B0228F6D903204C
:101D600002B0BDE8F08100BF0027C4F24227002086
:101D70003866FFF745FD022D05460DD1306880011C
:101D800040F1DE80FFF73CFD401B02284FF00300CE
:101D9000F4D902B0BDE8F081306880014FD5FFF77B
:101DA0002FFD401B02284FF00300F5D9F1E700BFDB
:101DB00040F20C00C2F20000006844F6D351C1F2B8
:101DC0006201A0FB0101480A019000BF00BF019819
:101DD000411E002801913FF413AF00BF0198411E3E
:101DE000002801913FF40CAF00BF0198411E00286C
:101DF00001913FF405AF00BF0198411E00280191F9
:101E0000E4D1FDE600210160FFF7FAFC054600BFC2
:101E1000306880077FF5F1AEFFF7F2FC401B022827
:101E20004FF00300F4D9B4E77068216A00F48032FF
:101E30008A4209D1616A00F47010884204D10020FE
:101E400002B0BDE8F08100BF012002B0BDE8F08122
:101E500040F004003062306A40F001001EE000BF34
:101E600020F001003062306A20F004003062FFF799
:101E7000C7FC054641F28837306A800720D5FFF756
:101E8000BFFC401BB8424FF00300F5D981E700BF0B
:101E900020F001003062306A20F004003062FFF769
:101EA000AFFC054641F28837306A800708D4FFF757
:101EB000A7FC401BB842F7D9032002B0BDE8F0816F
:101EC000B8F1000F3FF59FAEF06920F08050F0614F
:101ED00099E600BF40F480203060306840F48030E4
:101EE0001CE000BF20F480303060306820F4802097
:101EF0003060FFF785FC0546306880037FF55EAEF5
:101F0000FFF77EFC401B64284FF00300F4D940E744
:101F100020F480303060306820F480203060FFF79B
:101F20006FFC0546306880033FF548AEFFF768FC5C
:101F3000401B6428F6D9032002B0BDE8F08100BF41
:101F4000206AB0F5803F05D17168A26821F40031A4
:101F5000114371607168626A21F47411114308437E
:101F6000706001203866FFF74BFC04463068800142
:101F70003FF565AFFFF744FC001B02284FF003005C
:101F8000F4D906E7411E0020B0EB116F1CBF012001
:101F900070474EF21002CEF2000251604EF623510D
:101FA000CEF20001F0230B700721906011607047A2
:101FB000704700007047000090F83C20012A4FF065
:101FC000020236D010B580F83D200268D2F804E055
:101FD000D2F808C00C682EF07003234340F2FF745F
:101FE000C4F20004A24253600ADCB2F1804F13D065
:101FF00040F20043C4F200039A420DD011E000BF4A
:1020000042F60043C4F201039A4205D040F60003B1
:10201000C4F200039A4204D149682CF080031943AA
:1020200091600121002280F83D1080F83C20BDE83D
:102030001040104670470000002804BF0120704780
:1020400010B590F83D1031B9002180F83C100446DD
:1020500000F070F82046022180F83D10016840F23F
:10206000FF740B68C4F2000442F6004CA142C4F2B3
:10207000010C15DCB1F1804F1AD040F20042C4F2DD
:102080000002914214D0A14218DCB1F1804F1DD062
:1020900040F20042C4F20002914217D01AE000BFA1
:1020A000614505D040F60002C4F200029142EAD137
:1020B000826823F070031343A142E6DD614505D039
:1020C00040F60002C4F20002914203D1026923F4F7
:1020D00040731343846923F08002D0F804E0C3689E
:1020E000224361450A60CB62C1F828E002D142690F
:1020F000CCF8302001224A610B69DB0703D00B6961
:1021000023F001030B6180F8462080F83E2080F820
:102110003F2080F8402080F8412080F8422080F85D
:10212000432080F8442080F8452080F83D2000209E
:1021300010BD000010B582B0006840F20041C4F24A
:102140000001884212D0B0F1804F29D141F21C0029
:10215000C4F2020001681C2441F001010160006822
:1021600000F00100019001980EE000BF41F21C0058
:10217000C4F2020001681D2441F002010160006800
:1021800000F0020000900098204600210022FFF796
:10219000B7FB204602B0BDE81040FFF79FBB00BF71
:1021A00002B010BD90F83C20012A4FF002026CD022
:1021B00080B580F83D20D0F800C04FF67772DCF88B
:1021C000083023EA0202CCF808200B684F2B29DCE8
:1021D0001F2B45DD202B46D0302B44D0402B40F028
:1021E000AF80D1F804E0C968DCF82030DCF82020AA
:1021F00022F00102CCF82020DCF8182022F0F002B6
:1022000042EA011123F00A0242EA0E02CCF8181049
:10221000CCF82020DCF8081041F0470121F0300113
:1022200028E000BF6F2B33DDB3F5005F74D0B3F54A
:10223000805F21D0702B40F08380D1E901E3C96831
:10224000DCF8082043EA0E0322F47F4243EA01212E
:102250001143CCF80810DCF8081041F0770109E0D0
:102260000BB1102B6CD1DCF8081021F07001194370
:1022700041F00701CCF808100022012180F83D1040
:10228000002180F83C10BDE880401046704700BF38
:10229000502B21D0602B53D1D1F804E0C968DCF871
:1022A0002030DCF8202022F01002CCF82020DCF8CE
:1022B000182022F4704242EA013123F0A00242EADF
:1022C0000E12CCF81810CCF82020DCF8081041F0E1
:1022D000670121F01001CDE7D1F804E0C968DCF80E
:1022E0002030DCF8202022F00102CCF82020DCF89D
:1022F000182022F0F00242EA011123F00A0242EA19
:102300000E02CCF81810CCF82020DCF8081041F0B0
:10231000570121F02001ADE7D1E901E3C968DCF8FC
:10232000082043EA0E0322F47F4243EA01211143CD
:10233000CCF80810DCF8081041F480419AE700BF9F
:1023400001229AE77047000070B504460068C5682E
:102350000669B10716D515F0020113D06FF002011E
:102360000161012121778069800703D02046FFF7B2
:10237000E9FF05E0204600F0CDF8204600F04EFAD7
:1023800000202077700719D515F0040016D02068BA
:102390006FF00401016102212177806910F4407F10
:1023A00004D02046FFF7CEFF06E000BF204600F035
:1023B000B1F8204600F032FA00202077300717D518
:1023C00015F0080014D020686FF0080101610421A5
:1023D0002177C069800703D02046FFF7B3FF05E0EF
:1023E000204600F097F8204600F018FA00202077E9
:1023F000F00619D515F0100016D020686FF0100106
:10240000016108212177C06910F4407F04D0204683
:10241000FFF798FF06E000BF204600F07BF820465B
:1024200000F0FCF900202077F00718BF15F001003C
:1024300002D1300609D412E020686FF00101016179
:10244000204600F0AFFA300609D515F0800006D01E
:1024500020686FF0800101612046FFF7A9FD70063A
:1024600009D515F0400006D020686FF040010161E9
:10247000204600F099FAB00658BF70BD15F0200054
:1024800008D021686FF0200220460A61BDE8704044
:10249000FFF790BD70BD000080B586B0006840F2C7
:1024A0000041C4F2000188424FF00001CDE904115F
:1024B000CDE9021112D0B0F1804F28D141F21800BD
:1024C000C4F20200016841F004010160006800F0FC
:1024D00004000190019801200EE000BF41F21800B5
:1024E000C4F20200016841F004010160006800F0DC
:1024F0000400019001984020029002200390059072
:1025000040F60000C4F2010002A9FFF76BF806B024
:1025100080BD00007047000090F83C30012B04BFE4
:10252000022070474FEAB202032A00F2F1802DE93F
:10253000F043DFE802F003A53B7500BF036842F6F5
:1025400000461D6A1A6AC4F2010622F001021A62EC
:102550001A465C6852F818CFB3428E68D1F800E092
:1025600025F0020545EA06050CD1CE68D1E90578CB
:1025700024F4407425F00C0526F004063C43354352
:1025800044EA08042CF0730747EA0E075C609F6179
:102590004F6809695F631D629F6947F008079F6183
:1025A0009F6927F004079F61A6E000BF036842F619
:1025B00000461D6A1A6AC4F2010622F480721A6289
:1025C0001A46D3F804C052F81CEFB3428E680C6868
:1025D00025F4007545EA06250FD1CE68D1E90598A6
:1025E000360240F2FF4725F44065BE4335432CF4E4
:1025F000405748EA090647EA061C2EF073072743AE
:10260000C3F804C0DF614F680969DF631D62DF69D9
:1026100047F00807DF61DF6927F00407DF616BE03F
:10262000036842F60047D3F820C01A6AC4F20107D3
:1026300022F480521A621A465C6852F81C5FD1F884
:1026400000E08E68BB4204D14F6924F4804444EA20
:1026500087142CF4005747EA063725F4E64646EA85
:102660000E265C60DE614E6809691E641F62DF69C8
:1026700047F40067DF61DF6927F48067DF613AE0D4
:10268000036842F600461D6A1A6AC4F2010622F087
:1026900010021A621A46D3F804C052F8184FB34217
:1026A0008E68D1F800E025F0200545EA06150FD127
:1026B000CE68D1E905986FF0400725F0C00507EA1C
:1026C000061635432CF4406748EA090647EA860CAB
:1026D00024F4E64444EA0E27C3F804C09F614F681F
:1026E00009699F631D629F6947F400679F619F6945
:1026F00027F480679F610902136819431160002164
:10270000BDE8F043002280F83C200846704700BF37
:102710000121002280F83C2008467047002804BFB1
:102720000120704710B590F83D1031B9002180F8B4
:102730003C10044600F070F82046022180F83D105D
:10274000016840F2FF740B68C4F2000442F6004CCA
:10275000A142C4F2010C15DCB1F1804F1AD040F255
:102760000042C4F20002914214D0A14218DCB1F13F
:10277000804F1DD040F20042C4F20002914217D0B7
:102780001AE000BF614505D040F60002C4F2000225
:102790009142EAD1826823F070031343A142E6DD3F
:1027A000614505D040F60002C4F20002914203D117
:1027B000026923F440731343846923F08002D0F844
:1027C00004E0C368224361450A60CB62C1F828E097
:1027D00002D14269CCF8302001224A610B69DB0743
:1027E00003D00B6923F001030B6180F8462080F8C9
:1027F0003E2080F83F2080F8402080F8412080F87B
:10280000422080F8432080F8442080F8452080F85A
:102810003D20002010BD0000704700007047000000
:10282000C1B1042908D0082914BF41224022825C8A
:10283000012A05D016E000BF3F22825C012A11D197
:102840000222082910D0042914BF80F8412080F802
:102850003F200BE090F83E20012A03D1022280F8AD
:102860003E2003E00120704780F84020006801F01E
:102870001F010122036A8A4023EA02010162036AFE
:1028800042F64441C4F201011A43A1F144039842C3
:1028900002620FD040F2FF71C4F20001884213DCE3
:1028A000B0F1804F1CD040F20041C4F200018842D8
:1028B00016D01CE00A6842F400420A6040F2FF7140
:1028C000C4F200018842EBDD42F60041C4F201018E
:1028D000884205D040F60001C4F20001884206D1CA
:1028E000816801F00701062904BF002070470168D4
:1028F00041F00101016000207047000080B50268CE
:1029000001F01F0C012303FA0CFE136A42F6004C7F
:1029100023EA0E031362C4F2010C136A62451362C8
:1029200011D1DCF820C041F211131CEA030F0AD1C7
:10293000D2F820C040F244431CEA030F03D1536C89
:1029400023F400435364D2F820C041F211131CEA6F
:10295000030F06D1D2F820C040F244431CEA030F13
:1029600014D0082918D004290AD000294FF00101F9
:1029700014BF80F8411080F83E10002080BD00BFD9
:10298000012180F83F10002080BD00BF136823F0B4
:10299000010313600829E6D1012180F840100020CE
:1029A00080BD0000704700007047000070470000C5
:1029B00070470000B0B582B001680A68CC684B6906
:1029C00002F02F05202D04F0200505D125B102B01D
:1029D000BDE8B04000F0A2BE5FEA027C1EBF03F07B
:1029E000010E04F4907313EB0E0341D1036BD50673
:1029F00018D5012B16D114F0100313D00022019228
:102A00000A6801924A680192019A496949064BD4C1
:102A1000818DC28DC38D002B18BF914240F0F4818F
:102A200002B0B0BD13062DD514F080032AD090F863
:102A30004120212AF4D18268B2F5805F03D1026976
:102A4000002A00F06782026A531C036212784A600F
:102A5000C28C013A1304C284E2D1C86820F080001D
:102A6000C860C86840F04000C86002B0B0BD00BF98
:102A7000D30718BF14F4807340F0D080530700F1DF
:102A8000D380D8E05206CBD514F04002C8D0CA6833
:102A900022F04002CA60202180F8411002B0BDE857
:102AA000B04000F0DDBC00BFC16B0A68526893B251
:102AB000002BB5D0858DAB42B2D2C2858969202961
:102AC00000F0A180016851E8031F026821F48071C1
:102AD00042E80313DBB1016851E8031F026821F4E7
:102AE000807142E8031393B1016851E8031F026843
:102AF00021F4807142E803134BB1016851E8031FD0
:102B0000026821F4807142E80313002BDAD10168D6
:102B100051E8051F026821F0010142E80513C3B323
:102B2000016851E8051F026821F0010142E8051320
:102B30007BB3016851E8051F026821F0010142E8FA
:102B4000051333B3016851E8051F026821F0010144
:102B500042E80513002BDAD11BE000BF016851E801
:102B6000051F026821F0400142E80513DBB101684E
:102B700051E8051F026821F0400142E8051393B1B6
:102B8000016851E8051F026821F0400142E8051381
:102B90004BB1016851E8051F026821F0400142E88D
:102BA0000513002BDAD1202180F8421000210163A7
:102BB000016851E8031F026821F0100142E8031385
:102BC000DBB1016851E8031F026821F0100142E8FF
:102BD000031393B1016851E8031F026821F010014B
:102BE00042E803134BB1016851E8031F026821F06A
:102BF000100142E80313002BDAD1C16B04460846EA
:102C0000FEF75CFC204602214163818DC28D891A4A
:102C100089B202B0BDE8B040FFF7C8BE436C43F0D4
:102C200001034364530706D5BEF1000F03D0436C84
:102C300043F002034364930706D5BEF1000F03D0AF
:102C4000436C43F004034364BCF1000F06D55EEA15
:102C5000050303D0436C43F008034364436C002B2B
:102C60003FF4DEAE920605D525B1044600F056FDD0
:102C7000216820464969426C01F0400102F00802D7
:102C8000891800F0B98000BF016851E8031F02688D
:102C900021F4907142E80313BBB3016851E8031FAC
:102CA000026821F4907142E8031373B3016851E89C
:102CB000031F026821F4907142E803132BB30168EB
:102CC00051E8031F026821F4907142E80313002BBE
:102CD000DAD11AE0016851E8051F026821F001010C
:102CE00042E80513DBB1016851E8051F026821F0D5
:102CF000010142E8051393B1016851E8051F02681C
:102D000021F0010142E805134BB1016851E8051FAC
:102D1000026821F0010142E80513002BDAD1016BB2
:102D2000012924D1016851E8031F026821F0100134
:102D300042E80313DBB1016851E8031F026821F088
:102D4000100142E8031393B1016851E8031F0268C0
:102D500021F0100142E803134BB1016851E8031F51
:102D6000026821F0100142E80313002BDAD1202180
:102D700080F842100021016301684969490640F169
:102D8000C380016851E8051F026821F0400142E854
:102D90000513DBB1016851E8051F026821F040010D
:102DA00042E8051393B1016851E8051F026821F05C
:102DB000400142E805134BB1016851E8051F026864
:102DC00021F0400142E80513002BDAD1C16B002944
:102DD00000F09A8043F21172C0F6000204460846E1
:102DE0004A63FEF78FFB00283FF41AAEE06B416B9D
:102DF00002B0BDE8B04008470446FFF7D9FD002007
:102E0000606402B0B0BD00BF891A00BF026852E81A
:102E1000032F036822F4907243E80325BDB30268D0
:102E200052E8032F036822F4907243E8032575B338
:102E3000026852E8032F036822F4907243E80325E6
:102E40002DB3026852E8032F036822F4907243E81E
:102E50000325002DDAD11AE0026852E8052F036835
:102E600022F0010243E80525DDB1026852E8052F92
:102E7000036822F0010243E8052595B1026852E893
:102E8000052F036822F0010243E805254DB10268D1
:102E900052E8052F036822F0010243E80525002DC2
:102EA000DAD1202280F8422000220263026852E830
:102EB000032F036822F0100243E80325DDB1026806
:102EC00052E8032F036822F0100243E8032595B16E
:102ED000026852E8032F036822F0100243E803253A
:102EE0004DB1026852E8032F036822F0100243E854
:102EF0000325002DDAD1022289B2426302B0BDE877
:102F0000B040FFF753BD00BF02B0BDE8B040FFF7CF
:102F10004FBD00BF026A32F8023B6FF35F234B6084
:102F2000026295E5002804BF0120704710B50446F1
:102F300090F8410028B9002084F84000204600F0B5
:102F400063F8242084F841002068D4E90212C368A1
:102F500023F40053C360036923F440531A4302610E
:102F6000D4E904231143C268194341F20C639A4324
:102F70001143C1604169A26921F44071114343F6D4
:102F80000002C4F201029042416103D0FEF7D2FD7B
:102F900002E000BFFEF7E2FDD4E900231921484317
:102FA0009900B0FBF1F048F21F5CC5F2EB1CA0FBEE
:102FB0000C314FF69C734909C0F6FF7301FB030007
:102FC000322303EB0010A0FB0C03F02000EA5310A7
:102FD00000EB0110C3F343110844906010692021F5
:102FE00020F490401061506920F02A005061D068B0
:102FF00040F40050D0600020606484F8411084F8F0
:103000004210606310BD000070B586B040F6000449
:10301000C4F20104006804F5405100268842059678
:10302000CDE90366029601D006B070BD41F21800EA
:10303000C4F20200016802AD41F480410160016800
:1030400001F4804101910199016841F0040101609E
:103050000068294600F00400019001984FF40070C8
:10306000029002200390032005902046FEF7BAFA52
:103070004FF48060CDE90206204629460496FEF70B
:10308000B1FA252000210022FEF73AFC2520FEF7A8
:1030900025FC06B070BD00002DE9F04381B0044668
:1030A00090F84200202809D1884600294FF00100FD
:1030B00018BF002A06D101B0BDE8F083022001B09C
:1030C000BDE8F083002022211D46606484F8421090
:1030D00020631646FEF794FBA685E685A1680746A1
:1030E000B1F5805F02D12069002851D046464FF0EB
:1030F0000008E08D00284FD005F101090CE000BF69
:10310000406800266FF35F2028F8020BE08D01383D
:10311000E085E08D00283FD020680168890617D43B
:10312000B9F1000F22D0002D00F0CA80FEF768FB35
:10313000C01BA84200F2BC802068C168490744BF98
:1031400001685FEA01712FD401688906EED500BFDE
:10315000002ED5D0A168B1F5805F15D009B92169DD
:1031600091B1406800F07F000FE000BF0168890660
:10317000EED4016889065CBF01685FEA8161E7D42B
:1031800001688906F2D5E3E7406806F8010BBDE760
:103190000026E08D0028AFD10020202184F84210C5
:1031A00001B0BDE8F08300BF0021009101680091EB
:1031B00040680090009800BF206850E8030F216825
:1031C00020F4907041E80302BAB3206850E8030F7E
:1031D000216820F4907041E8030272B3206850E83F
:1031E000030F216820F4907041E803022AB320689D
:1031F00050E8030F216820F4907041E80302002A90
:10320000DAD11AE0206850E8050F216820F00100AB
:1032100041E80502DAB1206850E8050F216820F086
:10322000010041E8050292B1206850E8050F2168CD
:1032300020F0010041E805024AB1206850E8050F7E
:10324000216820F0010041E80502002ADAD1206B54
:10325000012824D1206850E8030F216820F01000D5
:1032600041E80302DAB1206850E8030F216820F03A
:10327000100041E8030292B1206850E8030F216872
:1032800020F0100041E803024AB1206850E8030F23
:10329000216820F0100041E80302002ADAD1202042
:1032A00084F84200002008212063616484F8400013
:1032B0000320202184F8421001B0BDE8F08300BF54
:1032C000FEF79EFAF4E70000704700002DE9F04396
:1032D00081B0044690F84100202809D100294FF020
:1032E000010018BF002A07D101B0BDE8F08300BF7C
:1032F000022001B0BDE8F0830020606421201D465B
:103300000E4684F841001746FEF77AFAA784E78450
:10331000A1688146B1F5805F02D1206900285DD0A7
:1033200037460020E28C2168002A5DD06A1C24D038
:10333000002D4AD0804600BF0868000608D4FEF77A
:103340005FFAA0EB0900A8427AD82168C868F3E7C1
:1033500017B117F8010B04E038F8020B00276FF3E0
:103360005F204860E08C0138E084E08C0028E3D1E5
:103370003AE000BF0A68120609D40A68120606D4A9
:103380000A6812065CBF0A685FEA0262F2D51FB1E2
:1033900017F8012B05E000BF30F8022B00276FF370
:1033A0005F224A60E28C013AE284E28C002AE4D196
:1033B0001AE000BF30F8022B00276FF35F224A604B
:1033C000E28C013AE284E28C72B10A68120635D5C9
:1033D000002FEFD017F8012BF1E700BF0027304690
:1033E000E28C2168002AA1D1086840061ED42DB3C2
:1033F000681C14D1086840062AD40868400627D4FF
:103400000868400624D4086840064FF00000F1D553
:103410000DE000BF2068C1680068400618D4FEF7C0
:10342000EFF9A0EB0900A842F4D909E0002020211F
:1034300084F8411001B0BDE8F08300BFFEF7E0F969
:103440000320202184F8411001B0BDE8F08300BFC3
:103450000020202184F8411001B0BDE8F083000075
:1034600070470000FEE70000FEE70000FEE70000F6
:1034700070470000704700002DE9F04F85B091467D
:10348000024300F0318140F600071E46C4F20107F6
:10349000049028B10A4607F580600121FEF7AAF9D9
:1034A000B9F1000F04D0384602213246FEF7A2F9E6
:1034B0000220FEF783F840F2C804C2F2000420465E
:1034C00000210025FFF71AFA20686FF00104456219
:1034D00040F27005C2F20005046105F11000002100
:1034E0000390FFF70BFA286900274762049E0461E6
:1034F00096B140F2C800C2F200000021FFF790F937
:1035000020B1EFF3108072B6FEE700BF40F2700505
:10351000049E0127C2F20005B9F1000F16D028461B
:1035200050F8101F44F61F62CA62C2600A224A6342
:1035300000224A626FF001020A610021FFF770F970
:1035400070B1EFF3108072B6FEE700BF40F2C8031F
:10355000002EC2F2000300F0C7804FF0000A06E020
:1035600040F2C803049E4FF0010AC2F200034CF679
:10357000CD40CCF6CC40A9FB0001B9FA89F04FEA66
:10358000501BB6FA86F04FEA5018B9F1000F4C46BE
:1035900030464FEA910218BF0124002E18BF0120C7
:1035A0000292A9EB910200924FF0FF3202EB9101DF
:1035B0006FF0010C019112E04FF0000B5FFA88F1FF
:1035C0005FFA8BF2B1FA81F0B2FA82F24009002977
:1035D0004FEA521418BF5FEA0B6140F08580C007C4
:1035E00028D01868B74207D20169C9071CBFC0F8C4
:1035F00010C001371CE000BF406A40F6C411884289
:1036000016D318460021FFF779F940F2C803C2F239
:1036100000031868049E40F270056FF0010C002151
:10362000C2F200054162C0F810C04FF0010801E08D
:103630004FF00008E007C1D02869CA4516D20169D9
:10364000C907B9D00AF10101BAF1000F4FF03202F7
:10365000C0F810C032D0B9F10A0F2FD3029A9245A8
:103660001ED296224A43963A24E000BF406A0A28B6
:10367000A2D303980021FFF741F940F27005C2F28E
:1036800000052869049E6FF0010C40F2C803002178
:10369000C2F200034162C0F810C04FF0010B8DE789
:1036A000009A924502D2C82208E000BFA9EB0102AD
:1036B00096246243019CB2FBF4F23232322A98BF64
:1036C000322244F24024C82A28BFC822C0F20F0484
:1036D000B4FBF2F24FF0000B013AC262EA610A2237
:1036E0008A4642636AE700BF05B0BDE8F08F00007C
:1036F000FEF78CB87047000040F28000C2F2000074
:10370000FEF722BE40F2C800C2F20000FEF71CBE67
:10371000406A0021C185C184FFF74AB981B090F8A1
:103720004210222921D183680246B3F5805F09D176
:1037300052F8281F52F8183C002B63D003685B68CE
:103740000AE000BF52F8281F13B90369002BF5D017
:1037500003685B6803F07F030B701168013111602F
:10376000C18D01390A04C18502D001B0704700BF84
:103770000168CA6822F02002CA60CA6822F4807216
:10378000CA604A6922F001024A61202180F8421091
:1037900000214163026B012A3CD10163016851E8B9
:1037A000031F026821F0100142E80313DBB1016836
:1037B00051E8031F026821F0100142E8031393B19E
:1037C000016851E8031F026821F0100142E8031369
:1037D0004BB1016851E8031F026821F0100142E873
:1037E0000313002BDAD101680A68D20606D500223D
:1037F00000920A680092496800910099818D01B099
:10380000FFF7D4B8026852686FF35F2221F8022BE9
:103810008162A5E701B0FFF757BD000040F210102C
:10382000C2F20000FFF7C6B8FEE70000C6B0FDF721
:10383000FBFF00250120CDE91F55CDE91D551A904C
:103840001E904FF4E0104FF48031022423901AA808
:10385000CDE91B15CDE92141FEF794F920B1EFF335
:10386000108072B6FEE700BF0F2013A931C14FF4DC
:10387000806913A80221CDE91695FEF77DF828B1DD
:10388000EFF3108072B600BFFEE700BF002741F2E1
:103890001800CDE91C77CDE91A77C4F2020001685F
:1038A00040F6004A41F0200101600168C4F2010ABB
:1038B00001F02001139113990168AAF5806B41F082
:1038C000040101600168002201F0040113911399C1
:1038D00001684FF0020841F0080101600068022110
:1038E00000F00800139013985846FDF783FF5846E0
:1038F000042101220125FDF77DFF504640F20141E0
:103900000022FDF777FF504602210122FDF772FFEA
:1039100006201AA91AAEA1C10324584631461D94A7
:10392000FDF760FE1AA8B0C0504631461D94FDF761
:1039300059FE50463146CDE91A95CDE91C78FDF780
:1039400051FE40F2C800AAF58431C2F2000041F2F3
:1039500087331697CDE91477CDE91877CDE91F772E
:10396000CDE91D77472280E88600C0E903378761EB
:10397000FEF762FB20B1EFF3108072B6FEE700BFE6
:103980004FF48050139040F2C800C2F2000013A917
:10399000FEF708FC20B1EFF3108072B6FEE700BF1F
:1039A00040F2C800C2F20000FEF7B8FE20B1EFF30B
:1039B000108072B6FEE700BF40F2C800C2F20000FD
:1039C00018A9FEF7F9FA28B1EFF3108072B600BF1C
:1039D000FEE700BF60201A9040F6C4101B9040F232
:1039E000C8000024C2F200001AA900221C941E94F0
:1039F000FEF792FD20B1EFF3108072B6FEE700BF34
:103A000040F2C800C2F20000FEF746FD40F210107E
:103A10000AF53051C2F200000C234FF4E13280E885
:103A20001600C0E90344C0E90534C461FFF77AFA1F
:103A300020B1EFF3108072B6FEE700BF40F27004D1
:103A4000C2F200044FF080422046002140F8102FBF
:103A5000472244F61F631691CDE91411CDE91811E0
:103A6000CDE91F11CDE91D11C0E90121C0E90331E4
:103A70008161FEF7E1FA28B1EFF3108072B600BF62
:103A8000FEE700BF4FF480501034139013A9204676
:103A9000FEF788FB20B1EFF3108072B6FEE700BF9F
:103AA00020461294FEF73AFE20B1EFF3108072B672
:103AB000FEE700BF129818A9FEF77EFA20B1EFF3D7
:103AC000108072B6FEE700BF60201A900A201B909B
:103AD00000201C901E9012981AA90022FEF71CFDCF
:103AE00020B1EFF3108072B6FEE700BF1298FEF728
:103AF000D3FC50464FF480610022FDF77BFE40F27C
:103B00007009C2F200090026504602210022C9E9CC
:103B10000166FDF76FFE584604210022FDF76AFE9C
:103B200040F20110A9F800004FF4FA70FDF746FDCD
:103B300040F21014C2F200040FF68831204612221F
:103B40004FF0FF33FFF7C2FB40F2581513AFC2F23C
:103B5000000531E045F60866C0F600060020314653
:103B6000FCF708FD804600203146FCF703FD0446C3
:103B700000203146FCF7FEFC814600203146FCF770
:103B8000F9FCB8F1000F18BF002C40F0658240F23C
:103B90001014C2F2000445F64C512046C0F6000154
:103BA00015224FF0FF33FFF791FB40F27009C2F28C
:103BB00000090026C9F80C602046394601220A2374
:103BC000FFF76AFA0028F7D19DF84C000D2801D0C4
:103BD0000A284DD1D9F80C000028EDD029782E54B0
:103BE0000029E7D045F608612846C0F60001FCF739
:103BF000C1FC0028DED00FF6E0218046FCF7E0FC97
:103C0000002867D045F61D614046C0F60001FCF76C
:103C1000D7FC002844D045F624614046C0F6000198
:103C2000FCF7CEFCE0B340460FF6B421FCF7C8FC2D
:103C3000B0B340460FF6B021FCF7C2FC002871D0AB
:103C400040460FF6AC21FCF7BBFC00283FF482AFE6
:103C500040460FF6A421FCF7B3FC002800F0CE810B
:103C600040F21014C2F2000420460FF6942197E7A8
:103C7000D9F80C105E2905D86854481CC9F80C0006
:103C80009AE700BF45F60E512046C0F60001132208
:103C90004FF0FF33C9F80C60FFF718FB8CE700BF4B
:103CA00045F60866C0F6000600203146FCF762FCC7
:103CB000044600203146FCF75DFCD8B140F21014F8
:103CC000C2F2000445F6B7412046C0F600011122B9
:103CD00067E700BF45F608610020C0F60001FCF769
:103CE00049FCB8B145F6B7412046C0F600011122A3
:103CF0007CE100BF002C00F0EF802078322800F03B
:103D0000D780312840F0D8806078002840F0D480F7
:103D10000024E2E045F622512046C0F600010622CA
:103D200064E100BF45F608610020C0F60001FCF721
:103D300021FC0028C2D140F27004C2F20004606885
:103D400001F004FD0026C4F2B436314601F07EFDD8
:103D500040F20008C4F2C848414601F0C5FBA16822
:103D60008146084601F0F2FC314601F06FFD414604
:103D700001F0BAFB002180464846C4F2C82101F098
:103D800065FD0021814601F09CFB00284FF07C512D
:103D9000484618BF4FF03F4101F00EFB01F09AFC7E
:103DA00048F21F520146C5F2EB12002848BF4142BB
:103DB000A1FB022300284FEA53124FF0640002FBDC
:103DC000101045F62B69109045F60A60C0F6000900
:103DD000C0F6000040F20001119248BF8146404603
:103DE000C4F2C82101F032FD0021804601F069FBD8
:103DF00000284FF07C51404618BF4FF03F4101F082
:103E0000DBFA01F067FC48F21F520146C5F2EB12E3
:103E1000002848BF4142A1FB0223002845F62B6041
:103E200045F60A62C0F60000C0F6000240F27006D5
:103E300048BF10465A096423C2F2000602FB131C55
:103E4000317845F614687478C0F6000800294346B6
:103E500045F60C6E4146C0F6000E18BF7346002CA6
:103E600018BF7146119CCDE904020194109C0DF11C
:103E7000680845F68852CDF80090B146CDE9024178
:103E800040468021C0F60002CDF818C0FCF7CAF900
:103E90004046FCF775FB40F2101482B2C2F20004F7
:103EA000204641464FF0FF33FFF710FA81E600BF8E
:103EB0006078002800F0E88020460FF69801FCF7B3
:103EC0007FFB48B140F21014C2F2000420460FF606
:103ED00088010F2265E600BF012445F61D614046BA
:103EE000C0F60001FCF76CFBF0B145F624614046DA
:103EF000C0F60001FCF764FBD0B340F27009C2F2D7
:103F000000090026002CC9F8046018BFC9F8086031
:103F100040F21014C2F2000445F629512046C0F6C2
:103F200000010B2262E000BF504602210022FDF793
:103F300061FC40F270014FF00100C2F20001087014
:103F400054B1584604210022FDF754FC40F27001A0
:103F50000120C2F20001487040F21014C2F20004C5
:103F600045F6F1412046C0F600010D2219E600BFDA
:103F700040F2C808C2F2000840460021FEF7BEFC2D
:103F8000D8F80000002141626FF001010161504644
:103F900002210122FDF72EFC40F27009C2F2000955
:103FA0004FF0000689F8006084B112980021FEF7F6
:103FB000A5FCD9F810006FF0010146620161584676
:103FC00004210122FDF716FC89F8016050464FF4E8
:103FD00080610022FDF70EFC40F21014C2F20004D2
:103FE00045F6FF412046C0F600010E224FF0FF3398
:103FF000FFF76CF9C9F80C60DEE500BF45F608660E
:10400000C0F6000600203146FCF7B4FA80460020D6
:104010003146FCF7AFFA814600203146FCF7AAFA98
:10402000044600203146FCF7A5FA119000203146E5
:10403000FCF7A0FAB8F1000F18BFB9F1000F41D199
:1040400040F21014C2F2000445F635512046C0F685
:1040500000011622A5E500BF00287FF498ADB9F154
:10406000000F00F0CF8198F80000322800F0FA81AC
:1040700031287FF48CAD98F8010000287FF487ADDB
:104080004FF00108F5E100BF45F61D614046C0F65E
:104090000001FCF795FA00283FF453AF45F6246180
:1040A0004046C0F60001FCF78BFA40F27009002888
:1040B000C2F200094FF000063FF477AFC9F808607C
:1040C00026E700BF002CBBD011990029B8D00028EA
:1040D000B6D198F800000028B2D000201A904046CF
:1040E0001AA90A22FCF70EFA1A99414518BF0029AD
:1040F000A6D0804608780028A2D199F800000028B0
:104100009ED000201A9048461AA900F0DDFF1A99A7
:10411000494518BF002993D00646087800288FD15A
:10412000207800283FF48CAF00201A9020461AA96E
:104130000A22FCF7E7F91A991090A14218BF00294A
:104140003FF47EAF087800287FF47AAF11980078AA
:1041500000283FF475AFDDF8449000201A904846DF
:104160001AA900F0B1FF1A991190494518BF00290A
:104170003FF466AF087800287FF462AFB8F1010F12
:1041800018BF18F1010040F0CF811098013003D022
:104190001098012840F0C8813046002101F091F9C3
:1041A000002840F0CD8100213046C4F2343101F0C6
:1041B00073F9002840F0C4811198002101F081F9C1
:1041C000002840F0BD8111980021C4F2343101F083
:1041D00071F9002800F0B4813046002101F06AF93D
:1041E00038B940F27000C2F200000078002800F0F8
:1041F0008E811198002101F05DF938B940F270000C
:10420000C2F200004078002800F08181B1463046BB
:104210000026C4F2C846314601F018FB0021C4F262
:10422000B43101F061F94FF07C5101F0C5F801F0B3
:104230006DFA04464846002101F02EF9002808BF17
:1042400004460E94119C3146204601F0FFFA0021ED
:10425000C4F2B43101F048F94FF07C5101F0ACF8F0
:1042600001F054FA06462046002101F015F900211C
:10427000002808BF06464846C4F2C8210F9601F040
:10428000E5FA0021044601F01CF900284FF07C51AA
:10429000204618BF4FF03F4101F08EF801F01AFAA6
:1042A00048F21F51C5F2EB11002848BF4042A0FB65
:1042B00001125209642102FB110611980021C4F277
:1042C000C821914601F0C2FA0021044601F0F9F834
:1042D00000284FF07C51204618BF4FF03F4101F0BD
:1042E0006BF801F0F7F948F21F51C5F2EB11002805
:1042F00048BF4042A0FB01125209642102FB110099
:104300000E99CDE90B69CDE9009602910E46109900
:104310000D92CDE903120DF1680945F6D6520F9CB6
:104320001190059048469021C0F600024346CDF812
:1043300028800694FBF776FF4846FCF721F982B205
:1043400040F21010C2F2000049464FF0FF33FEF772
:10435000BDFF50464FF480610122FDF74BFA142057
:10436000FDF72CF90021B8F1000FC8BF0121DDF8DD
:1043700040900023B9F1000FC8BF012334463046F6
:104380000F9E3246FFF778F840F27002C2F2000248
:10439000D2E9010104FB080006FB0911C846C2E985
:1043A000010114209146FDF709F950464FF4806150
:1043B0000022FDF71FFA4FF47A70FDF7FFF8D9E9F4
:1043C0000101CDF8108008910C990DF16808009159
:1043D0000B990A9B01910E990F9ECDE902100D9841
:1043E00040F2101405901198B02106904046CAA2E0
:1043F000C2F200040796FBF715FF4046FCF7C0F831
:1044000082B24DE598F8000000283FF4C0AB0020D0
:104410001A9040461AA90A22FCF774F81A994145E5
:1044200018BF00293FF4B3AB0646087800287FF494
:10443000AEAB207800283FF4AAAB00201A902046AB
:104440001AA900F041FE1A99A14218BF00293FF4B1
:104450009EAB0446087800287FF499AB4FF0010822
:1044600033E000BF98F8010000287FF490AB4FF0D4
:104470000208207800283FF48AAB00201A902046DA
:104480001AA90A22FCF73EF81A99A14218BF00297E
:104490003FF47DAB0646087800287FF478AB99F8A6
:1044A000000000283FF473AB00201A9048461AA978
:1044B00000F00AFE1A99494518BF00293FF467AB7E
:1044C0000446087800287FF462AB701C01D0012EEE
:1044D0002AD12046002100F0F4FF88BB00212046AD
:1044E000C4F2343100F0E6FF50B3B8F1010F05D14A
:1044F00040F27000C2F20000007840B1B8F1020F43
:104500002AD140F27000C2F20000407820BB40F295
:104510001014C2F2000445F6A2412046C0F6000184
:104520001422FFF73EBB00BF40F21014C2F2000499
:1045300045F6DB412046C0F60001FFF731BB00BF66
:1045400040F21014C2F2000445F6C9412046C0F6FC
:104550000001FFF7BCBB00BF00212046C4F2C841E8
:1045600001F074F90021C4F2B43100F0BDFF4FF046
:104570007C5100F021FF01F0C9F88146204600215E
:1045800000F08AFF0021002808BF81462046C4F2BF
:10459000C821CDF8449001F059F90021044600F0FB
:1045A00090FF00284FF07C51204618BF4FF03F414C
:1045B00000F002FF01F08EF848F21F51C5F2EB1136
:1045C000002848BF4042A0FB01125209642102FBAF
:1045D00011001092CDE9006245F6B552119CCDE96B
:1045E0000E6002901AA86021C0F6000243460394B0
:1045F000FBF718FE1AAC2046FBF7C2FF82B240F26E
:104600001010C2F2000021464FF0FF33FEF75EFEAD
:1046100050464FF480610122FDF7ECF81420FCF7BE
:10462000CDFF0E9800230028C8BF0123B8F1010F69
:104630000CD11198194600220123FEF71DFF40F20C
:104640007000C2F2000004300AE000BF119A00209E
:104650000121FEF711FF40F27000C2F200000830A5
:104660000168119C04FB061101601420FCF7A6FFF1
:1046700050464FF480610022FDF7BCF84FF47A7089
:10468000FCF79CFF40F27009C2F2000909F1080032
:10469000B8F1010F08BF09F10400D0F800C010986C
:1046A000434601900F980DF1680845F66252009656
:1046B000CDE9020440467021C0F60002CDF810C0DA
:1046C000FFF7E4BB52454144592C4455414C5F4DE2
:1046D0004F544F520D0A000050494E470000000051
:1046E0005A45524F000000005354415455530000A6
:1046F0004D4F5645000000004D4F5645320000001A
:104700004552522C554E4B4E4F574E5F434F4D4DD9
:10471000414E440D0A000000444F4E452C4D4F566B
:1047200045322C252B6C642C256C642E2530326C84
:10473000642C256C752C256C642C252B6C642C2525
:104740006C642E2530326C642C256C752C256C64C1
:104750000D0A0000414C4C004552522C4241445F2E
:104760004D4F544F520D0A0023F07F4720F07F4CED
:1047700080EA030000F00040ACEB070303F57C5334
:1047800003F1FF032DE9804909B44FEA144324EAF9
:1047900003484FEA154B25EA0B4E0FF2042606EBB1
:1047A00013273E7803FB0667C7F5000707FB06F6ED
:1047B0004FEAD64606F102064FEA543707FB066C6D
:1047C000CCF1005C4FEA1C472CEA074C0CFB06F5C9
:1047D00007FB06F404EB15464FEA961649085FEA14
:1047E000320234BF00204FF000404FEAD13706FBC1
:1047F00007FC4FEA1C4C0CFB0BF7D21B03FB0CF71E
:1048000061EB07010CFB0EF7B0EB074072EB1742B0
:104810000CFB08F734BFA2EB0742B2EB074261EB97
:1048200017414FEA0C444FEA910706FB07FC4FEA99
:104830001C4C0CFB0BF7B0EBC74072EB573203FB81
:104840000CF734BFA2EBC742B2EBC74261EB573162
:104850000CFB0EF7B0EBC70072EB57720CFB08F7BE
:1048600034BFA2EBC702B2EBC70261EB57714FEA4C
:10487000816141EA92114FEA826242EA90124FEA64
:10488000806004EBCC04039F4FEAD13706FB07FCA2
:104890004FEA1C4C0CFB0BF7D21B03FB0CF761EB34
:1048A00007010CFB0EF7B0EB074072EB17420CFB55
:1048B00008F734BFA2EB0742B2EB074261EB1741A6
:1048C0004FEA8C5504EB9C244FEA910706FB07FC4A
:1048D0004FEA1C4C0CFB0BF7B0EBC74072EB5732A6
:1048E00003FB0CF734BFA2EBC742B2EBC74261EB4C
:1048F00057310CFB0EF7B0EBC70072EB57720CFB95
:1049000008F734BFA2EBC702B2EBC70261EB5771E5
:104910004FEA816141EA92114FEA826242EA9012C3
:104920004FEA806015EB4C2544F100044FEAD13783
:1049300006FB07FC4FEA1C4C0CFB0BF7D21B03FBDE
:104940000CF761EB07010CFB0EF7B0EB074072EBC5
:1049500017420CFB08F734BFA2EB0742B2EB074249
:1049600061EB17414FEA813141EA92414FEA8232CD
:1049700042EA90424FEA80304FEA0C7615EB1C1564
:1049800044F1000448EA03434EEA0B484FF0000E9E
:10499000B2EB080C71EB030724BF624639464EEBBD
:1049A0000E0E4FF0000B0018524149414BEB0B0B20
:1049B000B2EB080C71EB03077BF1000B24BF6246DE
:1049C00039464EEB0E0E4FF0000B00185241494194
:1049D0004BEB0B0BB2EB080C71EB03077BF1000BFD
:1049E00024BF624639464EEB0E0E51EA020718BF4D
:1049F00046F0010616EB0E7655F1000254F1000167
:104A000003D5BDE88901BDE80088BDE88901BDE89E
:104A10000048B619524141EB0101A3F1010370476F
:104A200080807F7E7D7C7B7A7978777676757473EB
:104A3000727171706F6E6E6D6C6C6B6A6A696868AA
:104A4000676666656464636362616160605F5F5E40
:104A50005E5D5D5C5C5B5B5A5A59595858575756B6
:104A6000565555555454535352525251515050501B
:104A70004F4F4F4E4E4D4D4D4C4C4C4B4B4B4A4A6D
:104A80004A494949484848474747474646464545B1
:104A900045444444444343434342424242414141EA
:104AA00010B546EA06464FEA164646EA42564FEA2F
:104AB000D22242EA41524FEAD121A3F57053A3F129
:104AC000010300F02FF820F0004000F0004700F153
:104AD000020CBCF5006F01EB0050114640EA0700E4
:104AE00000D210BDBAF1000F0AD01CB503B44FF0CC
:104AF00004004FF004014FF000000FBCBDE810406F
:104B00004FF00001BBF1010FB9BF04484FF0FF3176
:104B10000348002140EA070010BD00BFFFFFEF7F00
:104B20000000F07F9C46002B30D477002BD04FEA5A
:104B300037071CB503B44FF010004FF01001BAF165
:104B4000000F06D0BCF1000FDCBF40F0080040F0C1
:104B500008014FF000000FBCBDE810400BF1010B45
:104B6000BBF1010F08BF5FEA170722BF12F1010274
:104B700011F101014FF0004143F1000300F000404A
:104B800043EA00007047F9D35708D0E746EA0646E3
:104B90004FEA164613F1400F1FDD13F1200FDFBF60
:104BA00016430A46002120335B42BED0C3F12007E2
:104BB00046EA06464FEA164602FA07F746EA0706AD
:104BC00022FA03F2C3F1200701FA07F742EA0702CB
:104BD00021FA03F14FF00003A7E746EA020646EA8E
:104BE00006464FEA164646EA0106BCBF46EA0646B6
:104BF000360C4FF000034FF000024FF0000194E735
:104C00002DE9804C70B49A46934691E8380007C865
:104C100031EA400C48BF34EA430C03D5FFF7A4FD4A
:104C2000FFF780FFF0BCBDE8008C2DE9804C70B42C
:104C30009A46934691E8380007C831EA400C48BFCD
:104C400034EA430C03D5FFF78FFDFFF729FFF0BCD3
:104C5000BDE8008C2DE9804C70B49A46934691E8EB
:104C6000380007C810F0804F08BF13F0804F03D101
:104C700000F01AF8FFF756FFF0BCBDE8008C2DE9F4
:104C8000804C70B49A46934691E8380007C810F0FB
:104C9000804F08BF13F0804F03D100F005F8FFF7F5
:104CA000FFFEF0BCBDE8008C20F07F4723F07F4C76
:104CB00080EA030000F0004007EB0C03A3F57C53EF
:104CC000A3F1FE0392F0000F00F0B38095F0000F07
:104CD00000F077802DE901494FEA114021EA0048B0
:104CE0004FEA144624EA064700FB06FC08FB06F6DA
:104CF00007FB08F818EB06484CEB164C00FB07F7CF
:104D000018EB07484CEB17404FEA124B22EA0B4EC8
:104D10004FEA154625EA06470BFB06FC0EFB06F696
:104D200007FB0EFE1EEB064E4CEB164C0BFB07F77B
:104D30001EEB074E4CEB174B18EB0B0840F1000035
:104D400018EB0E0B58EB000840F100008F1A4FF0E3
:104D500000014FF000063CBFC943661B14BFB5EB12
:104D6000040C00213CBFC943F61B4FEA174427EA55
:104D700004454FEA1C472CEA074C04FB076205FB7D
:104D800007F70CFB05F616EB074642EB174204FB50
:104D90000CFC16EB0C4642EB1C421BEB060658EBD8
:104DA000020241414EEA8E0E46EA9E0601D5BDE85A
:104DB0000189B619524141EB0101A3F10103BDE89C
:104DC00001894FEA144524EA05464FEA114721EAD2
:104DD000074C05FB07F406FB07F70CFB06F111EB8C
:104DE000074144EB174405FB0CFC11EB0C4144EB71
:104DF0001C444FEA124722EA074C05FB07F206FB68
:104E000007F70CFB06F616EB074642EB174205FBCD
:104E10000CFC16EB0C4642EB1C456A1854F10001E1
:104E200048BF7047B619524141EB0101A3F101039C
:104E3000704795F0000F37D04FEA114221EA024641
:104E40004FEA144724EA074C02FB07F106FB07F779
:104E50000CFB06F414EB074441EB174102FB0CFC7E
:104E600014EB0C4441EB1C414FEA154725EA074C73
:104E700002FB07F506FB07F70CFB06F616EB0746E9
:104E800045EB174502FB0CFC16EB0C4645EB1C42B0
:104E9000121951F1000148BF7047B619524141EB58
:104EA0000101A3F1010370474FEA144524EA0546C6
:104EB0004FEA114721EA074C05FB07F106FB07F70C
:104EC0000CFB06F212EB074241EB174105FB0CFC11
:104ED00012EB0C4251EB1C414FF0000648BF7047EB
:104EE000921841EB0101A3F10103704740F2013236
:104EF00000204FF0E04100F01FBE0000024A0020F9
:104F0000110700F019BE000001FDFFFF10B50446B7
:104F1000D1E9000100F002F8206010BDF8B50446A8
:104F20000D466A4600F06AF800987E30009000282E
:104F30001EDC002213462046294600F041F917D016
:104F4000002140F608004FF00000064620462946A2
:104F500000F0F0F8044640F6080006EA00014FF0C1
:104F6000000034F0004004BF0220FCF770F829E094
:104F70000098FF2828DB002108464FF0000000F4CD
:104F80004006002213462046294600F0DFF98CBF78
:104F9000002501250220FCF75AF84FF0FF4446B1E6
:104FA000002D0CBF4FF400004FF48000B04218BF3A
:104FB000084C042108464FF00000002D04BF84F087
:104FC0000040F8BD2046F8BD20462946BDE8F8401F
:104FD00000F0B0B8FFFF7F7F10B504460A46D4E961
:104FE0000003194600F036F8C4E9000110BD30385E
:104FF0000A2801D2012070470020704710B51446DE
:1050000000222260114A21F000439342A8BF10BD44
:1050100053EA000208BF10BDB3F5801FA8BF226885
:1050200007DA362200F088FD6FF0350221F00043E8
:105030002260DFF81CC06FF31E510CEB23531A449F
:1050400041F0FF5141F00051226010BD0000F07F9F
:1050500002FCFFFF2DE9F04106460C4640F2FF75C9
:10506000174635EA14502BD000221346304600F084
:10507000A7F825D03A463046214600F05DFD0646A9
:105080000C4635EA145010D000221346304600F08A
:1050900097F815D10220FBF7DAFFFFF72FFF0A463A
:1050A000214662F31E01BDE8F0810220FBF7CFFF2D
:1050B000FFF71CFF0A46214662F31E01BDE8F0819E
:1050C00030462146BDE8F08108B50A46002100912E
:1050D00001466846FBF7A3FB009808BD10B5002900
:1050E0000AD00878002807D005487844FBF768FA0A
:1050F000002801D0002010BD0248784410BD0000F7
:10510000720D00006A0D000010B500290AD0087861
:10511000002807D005487844FBF752FA002801D050
:10512000002010BD0248784410BD0000560E00005B
:105130004E0E000021F0004201F00043A2F1605247
:10514000B2F5801F28BFD2F17F6C0BD95FEA001C3B
:1051500043EAC20242EB507018BF704728BF20F0EC
:1051600001007047B2F5801FBCBF184670474FEA78
:10517000410C1CF5001F02D2084600F02EBC70B591
:1051800000F096F800000089FFF7F6BF4FF00040EE
:10519000A0F580007047000002494FF0000000F0C9
:1051A00099BC00BF0000F87F491058BFC1F14041D1
:1051B0005B1058BFC3F140438B42EFF30080704750
:1051C00051EA030C17D41CF5801F58BFBCF5801F93
:1051D00000F10680994218BF704708BF904270479F
:1051E00007D711F5801F58BF13F5801F19D49942B6
:1051F0007047894270471CF5801F08D5BCF5801F99
:10520000F7D58B4218BF704708BF824270474FF4F2
:10521000001C1CEB410F38BF1CEB430F01D28B422B
:10522000704770B500F044F8922449004FF00051E7
:105230004FF08053FFF7B8BF51EA030C17D41CF5A9
:10524000801F58BFBCF5801F00F10680994218BF2F
:10525000704708BF9042704707D711F5801F58BFAD
:1052600013F5801F19D499427047894270471CF585
:10527000801F08D5BCF5801FF7D58B4218BF70473B
:1052800008BF824270474FF4001C1CEB410F38BF2F
:105290001CEB430F01D28B42704770B500F008F849
:1052A000922449004FF000514FF08053FFF77CBF2C
:1052B0000EF1020E2EF0030E5EF8046B364205D49A
:1052C000012A43EB030515F5001F12D8012841EB15
:1052D000010C1CF5001F0CD80ED14FEAD17C0CEB51
:1052E0004C0C0CF1020C15F5001F08BF4CEBD37CE5
:1052F00004E04FF0080C01E04FEAD37C0CEB4C05C6
:1053000026FA05F606F00706B6F1040C06D20EEBF7
:10531000860CBDE870404CF0010C6047DFE80CF0F3
:10532000090B02024FF00041A1F500214FF00000EF
:1053300070BD19461046012851EB010418BFD4F581
:10534000001484BF002001F0004170BD53EA010C3D
:1053500017D41CF5801F58BFBCF5801F00F10680D4
:105360008B4218BF704708BF8242704707D713F5BA
:10537000801F58BF11F5801F19D48B4270479B4284
:1053800070471CF5801F08D5BCF5801FF7D59942E2
:1053900018BF704708BF904270474FF4001C1CEBC9
:1053A000430F38BF1CEB410F01D2994270470FB435
:1053B0000CBC03BCFFF771BF90EA010F48BF81F03E
:1053C000004100F11683421A3CBF801A89184FEA47
:1053D000D052A2EBD1534FF07F4C1CEA410F18BFC3
:1053E0009CEA026F00F03B804FF0004C4CEA00203A
:1053F0004CEA012121FA03FC10EB0C0C1ED202F145
:10540000FF325FEA1C2040EBC25038BF70471CF0EF
:105410007F0F4FEA400C18BFBCF17F4F38BF704779
:10542000C3F12003994008BF20F00100BCF17F4F79
:1054300038BF7047A0F1C04000F0CFBA4FEA3C003F
:10544000000A40EBC25028BF1CF0FF0F4FEA400C8F
:10545000E6D018BFBCF17F4F38BF7047EAE79CEA3F
:10546000026F05D010EA5C0F08BF00F000407047E3
:1054700010B500F06CFA00BF64FBBE3E10B500F042
:10548000F5F80CBF0120002010BD10B500F0EEF8BB
:1054900014BF0120002010BD10B500F06FF98CBFC3
:1054A0000120002010BD10B500F068F92CBF0120CC
:1054B000002010BD10B500F095F994BF0120002028
:1054C00010BD10B500F08EF934BF0120002010BDD2
:1054D000401058BFC0F14040491058BFC1F1404191
:1054E0008142EFF3008070474FF47F0C1CEAD0122A
:1054F0001EBF1CEAD11392EA0C0F93EA0C0F00F0C6
:10550000858090EA010F48BF42F4807240F4000C9D
:1055100041F400002CF07F4120F07F4000B5A2EB69
:10552000030281420FF2081CACEB504E9EF800E0E3
:10553000C0F100004FEA4E0E00FB0EFC38BF4900E0
:105540004FEA2C1C0CFB0EF34FEACE1E0EEB635EF3
:105550004FEA112C0EFB0CFC4FEAC1214FEA1C5301
:1055600000FB031102F5FA024FEA112C0EFB0CFCB2
:105570004FEA01314FEADC4C00FB0C1142EB2242B6
:10558000C14228BF09184CEB03335DF804EB10EB64
:10559000410143EBC250B2F57C0F38BF704729D5AB
:1055A00012F0F00F1CBF00F1C04000F00040704747
:1055B000008182838485868788898B8C8D8E8F91EC
:1055C0009293959697999A9C9D9FA0A2A3A5A7A810
:1055D000AAACAEB0B2B3B5B7B9BCBEC0C2C5C7C93C
:1055E000CCCED1D4D7D9DCDFE2E6E9ECF0F3F7FAA0
:1055F000FE0000004FEA400C0CF1807CBCF17E4FB5
:1056000028BF7047B0F1C04000F0E7B90CEAD113F1
:1056100090EA010F48BF42F48072624538BF63458B
:1056200007D213F47F0F16D080EA010000F000408B
:10563000704710B500F08BF9097EFC3E00F005B80C
:1056400080EA010000F00040704780EA010000F0AD
:10565000004000F0C2B912F47F0F04BF0248704747
:1056600080EA010000F0B9B90000C07F50EA010CE7
:1056700000F113801CF5000F58BFBCF5000F01D4DA
:105680008842704707D710F5000F58BF11F5000F7B
:1056900015D488427047894270471CF5000F04D525
:1056A000BCF5000FF7D5814270474FF0807C1CEBB2
:1056B000400F38BF1CEB410F01D28142704710B53B
:1056C00000F045F9922449004FF000504FF080510E
:1056D000FFF7FEBE41000B0ED3F19E0208D950F435
:1056E00000034FEA032323FA02F048BF4042704709
:1056F00010B500F02CF900BF4992248000207047BB
:105700006FF0004282EA200070470000C10DD1F125
:105710009E0206DB4FEA002343F0004323FA02F027
:105720007047004207D54FEA4001B1F1FE4F02D267
:105730004FF00000704710B500F009F9499224803D
:10574000002070476FEA20007047000010F0004111
:1057500048BF4042B0FA80F310FA03F2C3F19D0350
:105760000BD051EAC35101EB1220530638BF7047EA
:1057700000F1010008BF20F00100704750EA010C61
:1057800000F113801CF5000F58BFBCF5000F01D4C9
:105790008842704707D710F5000F58BF11F5000F6A
:1057A00015D488427047894270471CF5000F04D514
:1057B000BCF5000FF7D5814270474FF0807C1CEBA1
:1057C000400F38BF1CEB410F01D28142704710B52A
:1057D00000F0BDF8922449004FF080504FF0005186
:1057E000FFF776BE50EA010C00F113801CF5000FA4
:1057F00058BFBCF5000F01D48842704707D710F599
:10580000000F58BF11F5000F15D488427047894228
:1058100070471CF5000F04D5BCF5000FF7D5814289
:1058200070474FF0807C1CEB400F38BF1CEB410FE2
:1058300001D28142704710B500F089F892244900E6
:105840004FF000504FF08051FFF742BE4FF47F0CF5
:105850001CEAD0121EBF1CEAD11392EA0C0F93EA85
:105860000C0F00F0478090EA010F48BF42F48072AD
:105870004FF0004C4CEA00204CEA012102EB0302FD
:10588000A0FB0113A2F50002002918BF43F0010399
:105890005B0028BF4FEA330342EB22425FEA132C3E
:1058A0004CEBC2502EBFBCEB436FB2F57C0F704780
:1058B0004FEA036CBCF1004F08BF20F00100B2F5C5
:1058C0007C0F38BF70470BD582F0FF0212F5803F86
:1058D000C8BF704700F1C040D8BF00F0004070471B
:1058E00000F5000C5FEA4C0C48BF7047B0F1C040B7
:1058F00000F073B80CEAD11390EA010F48BF42F4EC
:105900008072624538BF634504D280EA010000F02E
:105910000040704710B500F01AF800BF8900013E42
:1059200000F007B800F009B85FEA410C5FEA1C6CB0
:1059300008D080EA010000F050B85FEA400C5FEA4E
:105940001C6CF6D14FF00040A0F5800070470EF1BE
:10595000020E2EF0030E5EF8044B244204D44FEAEC
:105960004102B2F17F4F11D84FEA4003B3F17F4FAC
:105970000CD80ED14FEAD07C0CEB4C0C0CF1020C85
:10598000B2F17F4F08BF4CEBD17C04E04FF0080C24
:1059900001E04FEAD17C0CEB4C0324FA03F404F051
:1059A0000704B4F1040C06D20EEB840CBDE81040E1
:1059B0004CF0010C6047DFE80CF0070802024FF0E2
:1059C0000040A0F5800010BD0846420018BFD2F18B
:1059D000807288BF00F0004010BDFF2141EAD05026
:1059E000C005704790EA010F48BF81F000413FF5C4
:1059F000EAAC421A04D882F00042A0EB0200114443
:105A00004FEAD052A2EBD1534FF07F4C1CEA410F2A
:105A100018BF9CEA026F4AD04FF0004C4CEA0020BD
:105A20004CEA012121FA03FCB0EB0C0C0FD412F06C
:105A3000FE0F36D05FEA4C001DD5001240EBC2507D
:105A400038BF70471CF03F0F18BF70470BE05FEA8C
:105A50001C20A2F1010240EBC25038BF70471CF07D
:105A60007F0F18BF7047C3F12003994014BF401E39
:105A700020F0010070474FEA1223800808BF7047EA
:105A8000B0FA80FCA2EB0C02CCF1280C60FA0CF00E
:105A900093EA122F04BF00EBC25070474FEAC37065
:105AA0007047130A5FEADC1008BF7047F6E79CEA0C
:105AB000026F04D010EA5C0F08BF0020704710B5D9
:105AC000FFF745FF40DFF63E81F0004070474FF0A2
:105AD000000070470CF00F03092B08BF082000F0EE
